{
  "_format": "hh-sol-artifact-1",
  "contractName": "ETHHTLC",
  "sourceName": "contracts/ETHHTLC.sol",
  "abi": [
    {
      "anonymous": false,
      "inputs": [
        {
          "indexed": true,
          "internalType": "bytes32",
          "name": "hashlock",
          "type": "bytes32"
        },
        {
          "indexed": true,
          "internalType": "address",
          "name": "sender",
          "type": "address"
        },
        {
          "indexed": true,
          "internalType": "address",
          "name": "recipient",
          "type": "address"
        },
        {
          "indexed": false,
          "internalType": "uint256",
          "name": "amount",
          "type": "uint256"
        },
        {
          "indexed": false,
          "internalType": "uint256",
          "name": "timelock",
          "type": "uint256"
        }
      ],
      "name": "Locked",
      "type": "event"
    },
    {
      "anonymous": false,
      "inputs": [
        {
          "indexed": true,
          "internalType": "bytes32",
          "name": "hashlock",
          "type": "bytes32"
        },
        {
          "indexed": false,
          "internalType": "bytes32",
          "name": "secret",
          "type": "bytes32"
        },
        {
          "indexed": true,
          "internalType": "address",
          "name": "recipient",
          "type": "address"
        }
      ],
      "name": "Redeemed",
      "type": "event"
    },
    {
      "anonymous": false,
      "inputs": [
        {
          "indexed": true,
          "internalType": "bytes32",
          "name": "hashlock",
          "type": "bytes32"
        },
        {
          "indexed": true,
          "internalType": "address",
          "name": "sender",
          "type": "address"
        }
      ],
      "name": "Refunded",
      "type": "event"
    },
    {
      "inputs": [
        {
          "internalType": "bytes32",
          "name": "hashlock",
          "type": "bytes32"
        },
        {
          "internalType": "address",
          "name": "recipient",
          "type": "address"
        },
        {
          "internalType": "uint256",
          "name": "timelock",
          "type": "uint256"
        }
      ],
      "name": "lock",
      "outputs": [],
      "stateMutability": "payable",
      "type": "function"
    },
    {
      "inputs": [
        {
          "internalType": "bytes32",
          "name": "",
          "type": "bytes32"
        }
      ],
      "name": "locks",
      "outputs": [
        {
          "internalType": "uint256",
          "name": "amount",
          "type": "uint256"
        },
        {
          "internalType": "address",
          "name": "sender",
          "type": "address"
        },
        {
          "internalType": "address",
          "name": "recipient",
          "type": "address"
        },
        {
          "internalType": "uint256",
          "name": "timelock",
          "type": "uint256"
        },
        {
          "internalType": "bytes32",
          "name": "hashlock",
          "type": "bytes32"
        },
        {
          "internalType": "bool",
          "name": "redeemed",
          "type": "bool"
        },
        {
          "internalType": "bool",
          "name": "refunded",
          "type": "bool"
        }
      ],
      "stateMutability": "view",
      "type": "function"
    },
    {
      "inputs": [
        {
          "internalType": "bytes32",
          "name": "secret",
          "type": "bytes32"
        }
      ],
      "name": "redeem",
      "outputs": [],
      "stateMutability": "nonpayable",
      "type": "function"
    },
    {
      "inputs": [
        {
          "internalType": "bytes32",
          "name": "hashlock",
          "type": "bytes32"
        }
      ],
      "name": "refund",
      "outputs": [],
      "stateMutability": "nonpayable",
      "type": "function"
    }
  ],
  "bytecode": "0x608060405234801561001057600080fd5b506109c2806100206000396000f3fe60806040526004361061003f5760003560e01c80630899146b146100445780637249fbb614610059578063ed5e843714610079578063eda1122c14610128575b600080fd5b6100576100523660046108e7565b610148565b005b34801561006557600080fd5b5061005761007436600461092b565b61042c565b34801561008557600080fd5b506100e261009436600461092b565b60006020819052908152604090208054600182015460028301546003840154600485015460059095015493946001600160a01b03938416949290931692909160ff8082169161010090041687565b604080519788526001600160a01b039687166020890152949095168685015260608601929092526080850152151560a084015290151560c0830152519081900360e00190f35b34801561013457600080fd5b5061005761014336600461092b565b61062a565b6000341161018b5760405162461bcd60e51b815260206004820152600b60248201526a139bc8115512081cd95b9d60aa1b60448201526064015b60405180910390fd5b4281116101da5760405162461bcd60e51b815260206004820152601a60248201527f54696d656c6f636b206d75737420626520696e206675747572650000000000006044820152606401610182565b8261021a5760405162461bcd60e51b815260206004820152601060248201526f496e76616c696420686173686c6f636b60801b6044820152606401610182565b6001600160a01b0382166102645760405162461bcd60e51b8152602060048201526011602482015270125b9d985b1a59081c9958da5c1a595b9d607a1b6044820152606401610182565b600083815260208190526040902054156102b85760405162461bcd60e51b815260206004820152601560248201527412185cda1b1bd8dac8185b1c9958591e481d5cd959605a1b6044820152606401610182565b6040518060e00160405280348152602001336001600160a01b03168152602001836001600160a01b03168152602001828152602001848152602001600015158152602001600015158152506000808581526020019081526020016000206000820151816000015560208201518160010160006101000a8154816001600160a01b0302191690836001600160a01b0316021790555060408201518160020160006101000a8154816001600160a01b0302191690836001600160a01b03160217905550606082015181600301556080820151816004015560a08201518160050160006101000a81548160ff02191690831515021790555060c08201518160050160016101000a81548160ff021916908315150217905550905050816001600160a01b0316336001600160a01b0316847f9c46dd03d783850e02b90c047546a4c280a6685e86ab93bbfac7221c53b51d62348560405161041f929190918252602082015260400190565b60405180910390a4505050565b600081815260208190526040902080546104725760405162461bcd60e51b81526020600482015260076024820152664e6f206c6f636b60c81b6044820152606401610182565b600581015460ff16156104ba5760405162461bcd60e51b815260206004820152601060248201526f105b1c9958591e481c995919595b595960821b6044820152606401610182565b6005810154610100900460ff16156105075760405162461bcd60e51b815260206004820152601060248201526f105b1c9958591e481c99599d5b99195960821b6044820152606401610182565b60018101546001600160a01b031633146105505760405162461bcd60e51b815260206004820152600a6024820152692737ba1039b2b73232b960b11b6044820152606401610182565b806003015442101561059b5760405162461bcd60e51b8152602060048201526014602482015273151a5b595b1bd8dac81b9bdd08195e1c1a5c995960621b6044820152606401610182565b60058101805461ff001916610100179055600181015481546040516001600160a01b039092169181156108fc0291906000818181858888f193505050501580156105e9573d6000803e3d6000fd5b5060018101546040516001600160a01b039091169083907f5e9f0820fcfb53b644becb775b651bae68c337106f21433e526551d1e02c1c0e90600090a35050565b600060028260405160200161064191815260200190565b60408051601f198184030181529082905261065b91610944565b602060405180830381855afa158015610678573d6000803e3d6000fd5b5050506040513d601f19601f8201168201806040525081019061069b9190610973565b60008181526020819052604090208054919250906106e55760405162461bcd60e51b81526020600482015260076024820152664e6f206c6f636b60c81b6044820152606401610182565b600581015460ff161561072d5760405162461bcd60e51b815260206004820152601060248201526f105b1c9958591e481c995919595b595960821b6044820152606401610182565b6005810154610100900460ff161561077a5760405162461bcd60e51b815260206004820152601060248201526f105b1c9958591e481c99599d5b99195960821b6044820152606401610182565b60028101546001600160a01b031633146107c65760405162461bcd60e51b815260206004820152600d60248201526c139bdd081c9958da5c1a595b9d609a1b6044820152606401610182565b8060030154421061080c5760405162461bcd60e51b815260206004820152601060248201526f151a5b595b1bd8dac8195e1c1a5c995960821b6044820152606401610182565b8060040154821461084f5760405162461bcd60e51b815260206004820152600d60248201526c090c2e6d040dad2e6dac2e8c6d609b1b6044820152606401610182565b60058101805460ff19166001179055600281015481546040516001600160a01b039092169181156108fc0291906000818181858888f1935050505015801561089b573d6000803e3d6000fd5b5060028101546040518481526001600160a01b039091169083907fb0baf4fee86ba591aeafdbee2bfd201e35b3d709a78df0506919c06ba898d78a9060200160405180910390a3505050565b6000806000606084860312156108fc57600080fd5b8335925060208401356001600160a01b038116811461091a57600080fd5b929592945050506040919091013590565b60006020828403121561093d57600080fd5b5035919050565b6000825160005b81811015610965576020818601810151858301520161094b565b506000920191825250919050565b60006020828403121561098557600080fd5b505191905056fea26469706673582212203c41083b295684faca1b39fef1b9e724b23a56a1b656414ef177105534c453d664736f6c63430008140033",
  "linkReferences": {},
  "deployedLinkReferences": {}
}